:020000040800F2
:100000009835002031020008291600082116000842
:100010002516000835060008391B000800000000FE
:100020000000000000000000000000005D16000855
:100030003906000800000000591600089116000853
:100040005502000855020008550200085502000834
:100050005502000855020008550200085502000824
:100060005502000855020008550200085502000814
:100070005502000855020008550200085502000804
:1000800055020008550200085502000855020008F4
:1000900055020008550200085502000855020008E4
:1000A00055020008550200085502000855020008D4
:1000B00055020008AD160008550200085502000858
:1000C00055020008550200085502000855020008B4
:1000D00055020008E11A0008550200085502000800
:1000E0005502000855020008550200085502000894
:1000F0005502000855020008550200085502000884
:100100005502000855020008550200085502000873
:100110005502000855020008550200085502000863
:100120005502000855020008550200085502000853
:100130005502000855020008550200085502000843
:100140005502000855020008550200085502000833
:100150005502000855020008550200085502000823
:100160005502000855020008550200085502000813
:100170005502000855020008550200080000000062
:10018000550200085502000800F002F800F041F89E
:100190000AA090E8000C82448344AAF10107DA45E2
:1001A00001D100F036F8AFF2090EBAE80F0013F0F3
:1001B000010F18BFFB1A43F001031847681F000026
:1001C000881F0000103A24BF78C878C1FAD85207B7
:1001D00024BF30C830C144BF04680C6070470000C1
:1001E0000023002400250026103A28BF78C1FBD840
:1001F000520728BF30C148BF0B607047642900F028
:10020000F980002070471FB501F05EFF1FBD10B5DB
:1002100010BD00F0E1F91146FFF7F5FF01F028FEEF
:1002200000F0FFF903B4FFF7F2FF03BC01F0C0FCDC
:100230000C48016841F4700101600B4880470B488D
:100240000047FEE7FEE7FEE7FEE7FEE7FEE7FEE724
:10025000FEE7FEE7FEE7000005480649064A074BB1
:100260007047000088ED00E0991600088901000839
:100270009801002098350020981100209811002046
:10028000704753EA020C00F069802DE9F04B4FF003
:100290000006002B1FBFB3FA83F503FA05F424FA16
:1002A00005F65E4012BF1643B2FA82F502FA05F473
:1002B000C5F120051EBF22FA05FC44EA0C042035D6
:1002C00056EA044C4FEA144418BF641C4FF000086F
:1002D0004FF00009904271EB030C39D3002919BF8C
:1002E000B1FA81F701FA07F6B0FA80F700FA07F6DB
:1002F000C7F120071EBF20FA07FC46EA0C0620378C
:10030000B6FBF4FCA7EB0507103F07F01F0BCBF182
:1003100020062CFA06F60CFA0BFB44BFB346002667
:10032000202FA4BF5E464FF0000B5BEA060C08BF0F
:100330004FF0010B19EB0B0948EB0608ABFB027CF5
:1003400006FB02CC0BFB03CCC01B71EB0C01C1E71D
:100350000B46024641464846BDE8F08B13B50843BC
:1003600018BF4FF0FF300146AFF30080BDE81C40DE
:10037000704700000FB4044910B503AA029800F0BA
:10038000F9F810BC5DF814FBBC0000202DE9F04129
:100390000E460446002020622046E168884730B3BC
:1003A000252805D0D4E901219047206A401CF2E7B6
:1003B000E168204600278847050018D0A5F14100D4
:1003C000192802D820354FF40067324629462046C6
:1003D0002760FFF713FF40B1012804D0F61D26F077
:1003E00007060836D8E7361DD6E72846DAE7206A3A
:1003F000BDE8F0812DE9F04106460024106875291A
:10040000314616A510D0AFF30080002802DA404232
:1004100013A507E031688A0701D512A502E0490754
:1004200004D511A5012401E0AFF3008000210A22C8
:1004300006F1240709E0B0FBF2FCB0FBF2F302FB8B
:100440001C00303078541846491C0028F3D123464C
:100450002A463046BDE8F04100F033B80000000005
:100460002D0000002B000000200000004FF00002D3
:1004700000B5134694469646203922BFA0E80C509A
:10048000A0E80C50B1F12001BFF4F7AF090728BF75
:10049000A0E80C5048BF0CC05DF804EB890028BFF1
:1004A00040F8042B08BF704748BF20F8022B11F01A
:1004B000804F18BF00F8012B704770477047704796
:1004C00070472DE9F0470D4699469246044600F1E3
:1004D00024080168880604D5E06921F01001216034
:1004E00000E00120A84201DD471B00E00027A169D0
:1004F0007A1902EB0900081AA0612078C00602D41C
:100500002046AFF30080002608E0D4E901211AF864
:1005100006009047206A401C761C20624E45F4DBA2
:100520002078C0060AD52046AFF3008006E0D4E963
:10053000012130209047206A401C2062381EA7F11C
:100540000107F4DC07E0D4E9012118F80500904721
:10055000206A401C2062281EA5F10105F3DC20461C
:10056000AFF300802078000602D50220BDE8F087B6
:100570000120FBE7074B70B50D467B4400F015F8F2
:100580000446284600F024F810B14FF0FF3070BD4B
:10059000204670BDCF1600000048704710000020B4
:1005A00001694A1C02610878704700B58FB0CDE937
:1005B00001310021059105497944CDE90310114627
:1005C0006846FFF7E3FE0FB000BD0000E5FFFFFF48
:1005D000007B00F0800070477546FFF7DDFFAE46F8
:1005E00005006946534620F00700854618B020B53F
:1005F000FFF732FEBDE820404FF000064FF0000745
:100600004FF000084FF0000BAC46ACE8C009ACE876
:10061000C009ACE8C009ACE8C00921F007018D466B
:10062000704710B50446AFF300802046BDE8104087
:10063000FFF7F8BDFEE700007047000070B5866D5B
:10064000044600F02FF994F83510022925D105460B
:100650002068216C026822F016020260426922F0D2
:100660008002426109B9A16C19B1016821F0080149
:100670000160016821F00101016000BF206800688D
:10068000C0070ED000F00EF9401B0628F6D320203C
:100690006065032084F835000CE08020606501204F
:1006A00008E0E06D3F2101FA00F0B060012084F81D
:1006B00035000020002184F8341070BD90F835100A
:1006C000022909D1052180F835100068016821F060
:1006D00001010160002070478021416501207047C1
:1006E0002DE9F04F83B000F13E4202F1FF724FEA74
:1006F000B22241F600470192C4F2020708224FF0ED
:10070000010E00254FF0000A4FF00008B84208BF64
:10071000072200920AE000BF08F101080AF1040A6A
:10072000B8F1100F05F1020500F0A4800C680EFA74
:1007300008FB14EA0B09EFD04C6804F0030CACF191
:10074000010EBEF1010F11D80322876802FA05F6E7
:10075000CA68B743AA403A4382604268C4F30017AC
:1007600022EA0B0207FA08F73A434260BCF1030F92
:100770001CD0C26803238E6803FA05F7BA4306FA51
:1007800005F73A43BCF1020FC2600FD16FF00302CC
:1007900002EA580202440AF01C060F23176A03FA01
:1007A00006F40B69A743B3403B431362026803237B
:1007B0004F68AB409A4307F00303AB401A4317F46A
:1007C000403F4FF0010E0260A6D0002243F64403E2
:1007D0000292C4F202031A6843F6004442F48042D3
:1007E0001A601A68C4F2010402F480420292029A6A
:1007F00028F003024FF6084B2244CFF6FF7B52F855
:100800000B300AF00C070F26BE4023EA060C019BB2
:10081000009E072B38BF1E4606FA07F747EA0C036F
:1008200042F80B30A2684B6842EA090743F60C4CC9
:10083000DE0258BF22EA0907A760C4F2010CDCF807
:1008400000209E0242EA090758BF22EA0907CCF8B5
:10085000007062689E0342EA090758BF22EA09074E
:1008600067602268DB0342EA090358BF22EA0903F2
:10087000236051E703B0BDE8F08F00000069084035
:1008800018BF012070470000002A08BF09048161D9
:100890007047000042F20000CEF204000068000C35
:1008A0007047000040F29410C2F2000000687047E8
:1008B00040F2080040F29411C2F20000C2F20001BE
:1008C00000780A68104408607047000080B543F65D
:1008D0000040C4F20200016841F400710160016847
:1008E00041F480610160032000F046F80F2000F021
:1008F00005F800F02BF8002080BD0000B0B540F2F4
:100900000802C2F2000240F204011278C2F20001B1
:100910004FF47A730968B3FBF2F20446B1FBF2F1CB
:10092000084600F0EDFA0F2C4FF001050CD858B92D
:100930004FF0FF3021460022002500F00DF840F274
:100940000C00C2F2000004602846B0BD70470000F1
:1009500080B501F0F3F880BD70B514460D4606462B
:1009600001F0FCF82946224600F060FE01463046C0
:1009700001F0FCF870BD000080B501F009F980BD00
:100980002DE9F041002800F08B8043F60808C4F2FE
:1009900002080446D8F8F8030D4600F00700884224
:1009A00007D288F8F853D8F8F80300F00700A842F7
:1009B00076D12068810717D5410705D5D8F80010F2
:1009C00041F4E051C8F80010010705D5D8F800102F
:1009D00041F46041C8F80010D8F80010A26821F076
:1009E000F0011143C8F80010C0073FD1D8F8F80350
:1009F00000F00700A84207D988F8F853D8F8F803A0
:100A000000F00700A8424BD12068410707D5D8F86D
:100A10000010E26821F4E0511143C8F8001000070B
:100A200008D5D8F80000216920F4604040EAC100F0
:100A3000C8F8000000F07EF8D8F8001042F2E20298
:100A4000C1F30311C0F60002515C40F2040220FA27
:100A500001F140F20C00C2F200000068C2F2000294
:100A60001160FFF74BFF0020BDE8F0816068811E38
:100A7000022907D258F8081C89015CBF0120BDE893
:100A8000F08110E0012807D158F8081C89035CBFE9
:100A90000120BDE8F08106E058F8081C890702D45F
:100AA0000120BDE8F081D8F8001021F003010843CF
:100AB000C8F80000FFF7F6FE064641F2883700BF8F
:100AC000D8F80000616800F00C00B0EB810F8DD009
:100AD000FFF7E8FE801BB842F2D90320BDE8F081A1
:100AE00040F20400C2F200000068704780B5FFF7D2
:100AF000F7FF43F60801C4F20201096842F2F2026C
:100B0000C1F38221C0F60002515CC84080BD0000E4
:100B100080B5FFF7E5FF43F60801C4F2020109685A
:100B200042F2F202C1F34231C0F60002515CC84009
:100B300080BD000010B543F60404C4F202046068EE
:100B400000F00C0142F200400829C0F2F40007D086
:100B5000042918BF10BD41F20020C0F27A0010BD78
:100B6000216801F03F02216823684902C3F388111C
:100B700005D4A1FB00010023FFF783FB06E041F24F
:100B80000020C0F27A004843B0FBF2F02168022254
:100B9000C1F3014102EB4101B0FBF1F010BD0000D7
:100BA0002DE9F04182B0002800F0A28004460078D0
:100BB00043F60006C007C4F2020643D0B06800F056
:100BC0000C00042805D1306880033BD56068C8BBA1
:100BD0008EE0B06800F00C00082802D17068400276
:100BE000F1D46568B5F5A02F0AD0B5F5803F0BD0DC
:100BF000306820F480303060306820F4802006E0D7
:100C0000306840F480203060306840F480303060DC
:100C1000FFF748FE002D054611D000BF3068800365
:100C200010D4FFF73FFE401B6428F7D922E100BF34
:100C3000FFF738FE401B64284FF0030055D830689A
:100C40008003F5D4207880071AD5B06810F00C0F17
:100C500009D0B06800F00C00082840F08A80706865
:100C6000400200F186803068800702D5E0680128E4
:100C70003ED13068216920F0F80040EAC1003060C0
:100C80002078000738D4207840074CD4A5695DB39C
:100C9000B06800F00C00082840F09E80012D27D09D
:100CA0007068E16900F480028A4221D1216A00F073
:100CB0003F028A421CD147F6C071626A0140B1EB23
:100CC000821F15D1A26A0023CFF6FF7303EBC23255
:100CD00000F440316FF30F02914209D1E16A00F054
:100CE0007060B0EB016F03D1002002B0BDE8F0816D
:100CF000012002B0BDE8F0816069002840F20000E8
:100D0000C4F2472057D00121C0F8801EFFF7CAFD6A
:100D1000054600BF706F8007B5D4FFF7C3FD401BC9
:100D20000228F7D9A6E0306C10F080580AD10020D4
:100D30000190306C40F080503064306C00F0805096
:100D40000190019847F20007C4F200073868C00517
:100D500024D4386840F480703860FFF7A3FD05465E
:100D60003868C0051AD4FFF79DFD401B0228F7D94B
:100D700080E0E068002851D00020C4F24720012123
:100D80000160FFF78FFD0546306880073FF571AFC2
:100D9000FFF788FD401B0228F6D96BE0A568052DFA
:100DA00050D0012D52D0306F20F001003067306FED
:100DB00020F004004DE00021C0F8801EFFF772FD16
:100DC000054600BF706F80077FF55DAFFFF76AFDD6
:100DD000401B0228F6D94DE00027C4F24727002027
:100DE0003866FFF75FFD022D05460BD130688001A4
:100DF00058D5FFF757FD401B02284FF00300F5D9E7
:100E000073E700BF306880017FF56EAFFFF74AFDE2
:100E1000401B02284FF00300F4D966E70020C4F21B
:100E2000472000210160FFF73DFD0546306880073F
:100E30007FF526AFFFF736FD401B02284FF0030079
:100E4000F4D952E7306F40F004003067306F40F063
:100E500001003067FFF726FD002D054641F2883777
:100E600014D000BF306F800713D4FFF71BFD401B69
:100E7000B842F7D9032002B0BDE8F081FFF712FDB8
:100E8000401BB8424FF003003FF62FAF306F800792
:100E9000F4D4B8F1000F7FF4F9AE306C20F080503C
:100EA0003064F3E604F11C052FCD08430021CFF692
:100EB000FF7140EA821001EBC3316FF30F0140EA8A
:100EC00005600843706001203866FFF7EBFC0446BC
:100ED000306880013FF508AFFFF7E4FC001B0228F3
:100EE0004FF00300F4D900E74EF21001CEF20001FA
:100EF0000A68042822F0040208BF04320A6070471E
:100F000080B500F0ADFB80BD704700007047000069
:100F1000002804BF0120704710B5044690F83D003A
:100F200028B9002084F83C00204600F01FF8022079
:100F300084F83D002068211D00F0D6FB012084F8D4
:100F4000460084F83E0084F83F0084F8400084F8AE
:100F5000410084F8420084F8430084F8440084F897
:100F6000450084F83D00002010BD000080B582B02F
:100F7000006840F20041C4F20001884201D002B092
:100F800080BD0020019043F64000C4F202000168D9
:100F9000032241F0020101600068012100F002001B
:100FA000019001981D20FFF7D7FC1D20FFF7D0FC12
:100FB00002B080BD90F83D1001291CBF0120704790
:100FC000022180F83D10006841F2FF72C168C4F24E
:100FD0000002904241F00101C1600DDC40F2FF715E
:100FE000C4F20001884215DCB0F1804F29D040F2F4
:100FF0000041C4F2000122E040F2FF31C4F20101DD
:10100000884212DC41F60001C4F20001884218D087
:10101000002112E040F60001C4F20001884210D025
:1010200040F60041C4F2000109E044F20001C4F2BC
:101030000101884205D040F20041C4F2010188421A
:1010400006D1816801F00701062904BF002070471E
:10105000016841F001010160002070477047000005
:1010600010B5044600680169890744BFC1685FEA9A
:10107000817138D420680169490744BFC1685FEABB
:1010800041713CD420680169090744BFC1685FEA27
:10109000017141D420680169C90644BFC1685FEA93
:1010A000C16145D420680169C9071CBFC1685FEAF6
:1010B000C1714AD120680169090644BFC1685FEA6D
:1010C000016149D420680169490644BFC1685FEAEB
:1010D000416148D420680169890644BFC1685FEA5C
:1010E000816147D410BD6FF00201016101212177B8
:1010F0008069800745D02046FFF7B0FF47E06FF0DA
:101100000401016102212177806910F4407F41D000
:101110002046FFF7A3FF43E06FF0080101610421BF
:101120002177C06980073ED02046FFF797FF40E057
:101130006FF01001016108212177C06910F4407F30
:101140003AD02046FFF78AFF3CE06FF001010161D1
:10115000204600F03FF8ADE76FF0800101612046C6
:10116000FFF7D2FEAEE76FF040010161204600F0CC
:1011700041F8AFE76FF0200101612046FFF7C6FE9E
:1011800010BD204600F022F8204600F021F8002093
:1011900020776FE7204600F019F8204600F018F895
:1011A000002020776EE7204600F010F8204600F07F
:1011B0000FF8002020776DE7204600F007F8204662
:1011C00000F006F8002020776CE700007047000070
:1011D0007047000040F27001C2F20001884218BF5F
:1011E000704740F2B800C2F20000016801310160AE
:1011F0007047000070470000704700007047000013
:1012000090F83D1090F83E000843C0B270470000CF
:10121000B0B582B0016805460868CA684C6900F03C
:101220002F03202B02F0200305D123B1284600F024
:1012300017FB02B0B0BD5FEA007C1EBF04F0010ED8
:1012400002F4907414EB0E0424D12B6B1040C206F0
:1012500017D5012B15D1002001900868019048682E
:1012600001900198486940061CD4A88DEA8DEB8D49
:10127000002B1CBF801A5FEA004240F09B8002B046
:10128000B0BD010637D44006F9D5284600F0DCFA97
:1012900002B0B0BDC10718BF12F4807130D1410750
:1012A00034D43AE0A86B0268526893B2002BE6D0BF
:1012B000AC8DA342E3D2EA85C269B2F5807F16D035
:1012C000CA6822F48072CA604A6922F001024A6147
:1012D0004A6922F040024A61202285F83E2000221D
:1012E0002A63CA6822F01002CA60FFF7A7F9A88D26
:1012F000E98D401A6FE0284600F096FB02B0B0BDC1
:10130000296C41F001012964410706D5BEF1000FA7
:1013100003D0296C41F002012964810706D5BEF192
:10132000000F03D0296C41F004012964BCF1000FC7
:1013300006D55EEA030103D0296C41F00801296457
:10134000296C00299BD01040800602D5284600F069
:1013500087FA28684069296C00F0400001F0080114
:10136000401820D0284600F059FA286841694906FB
:1013700014D5416921F040014161A86B70B141F67B
:101380000D01C0F600010165FFF798F900283FF450
:1013900076AFA86B016D884702B0B0BD2846FFF755
:1013A0002DFF02B0B0BD2846FFF728FF00202864BB
:1013B00002B0B0BDCA6822F49072CA604A6922F0D5
:1013C00001024A61202285F83E2000222A63CA6871
:1013D00022F01002CA6081B22846FFF70DFF02B06A
:1013E000B0BD0000002804BF0120704710B50446BE
:1013F00090F83D0028B9002084F83C00204600F019
:1014000021F8242084F83D002068C16821F40051AF
:10141000C160204600F07EFA2068016921F4904105
:101420000161416921F02A014161C16841F4005123
:10143000C16000202021206484F83D1084F83E1013
:1014400010BD000070B586B00024C4F2020400682C
:10145000A4F57041884201D006B070BD002043F66B
:1014600030010190C4F202014A6901AD42F010025C
:101470004A614A69072602F010020192019A01901E
:101480000A6842F001020A600A6802F00102019251
:10149000019A0190086840F0010008600868012185
:1014A00000F00100019001984FF4007001900220BB
:1014B0000290CDE90310204629460596FFF710F962
:1014C0004FF480600190204629460596FFF708F901
:1014D0002520FFF73DFA252003210322FFF73CFAE0
:1014E00006B070BD10B590F83E30202B0BD100290E
:1014F0004FF0010418BF002A01D1204610BD90F81A
:101500003C30012B01D1022010BD0123002480F8C2
:101510003C30046300F06CFA204610BD006841F2D4
:101520000001C4F20101884218BF704740F2141054
:1015300040F28E11C2F20000C2F2000100780A8867
:1015400040F25C13C2F200039854501C08807047AC
:101550002DE9F04381B0044690F83D0020280BD1DE
:101560000E4600294FF0010055D01746002A52D0F0
:1015700094F83C00012803D1022001B0BDE8F083BB
:10158000012084F83C004FF0000921201D46C4F8DA
:10159000409084F83D00FFF785F9A784E784A168AF
:1015A0000746B1F5805F07D1206900281CBF30468F
:1015B0004E46B046064601E04FF0000884F83C90E5
:1015C00007E000BF16F8010B21684860E08C013885
:1015D000E084E08C80B1204680213A462B4600F022
:1015E0004DFA80B9002EEDD138F8020B21686FF367
:1015F0005F2048600026E9E7204640213A462B4616
:1016000000F03CFA18B1032001B0BDE8F0832020BF
:1016100084F83D00002001B0BDE8F0837047000071
:10162000FEE70000FEE700007047000000F0070042
:1016300080F00703042B28BF04234FF0FF3C03383E
:101640000CFA03F338BF0020994381400CFA00F0F4
:1016500022EA00000843704770470000704700000E
:10166000B0B501380024B4EB106F1CBF0120B0BD31
:101670004EF21005CEF2000568604FF0FF300F21EA
:1016800000F074FA0720AC6028602046B0BD00006E
:1016900080B5FFF70DF980BD4EF68850CEF2000000
:1016A000016841F4700101607047000080B540F2AC
:1016B0007000C2F20000FFF7D3FC80BD10B540F20D
:1016C0007004C2F2000440F200420023C4F200029F
:1016D000C4E902302046C4E900212361FFF718FC69
:1016E0002046FFF767FC10BD10B540F6FF3E0368CB
:1016F000C4F2000E40F2004C7045C4F2010C0FDC45
:10170000B0F1804F19D040F20042C4F20002904282
:1017100013D040F60002C4F2000290420DD010E057
:1017200040F60042C4F20002904206D0604504D068
:101730000022C4F20102904203D14A6823F07003F0
:10174000134341F6FF72C4F2000290420DDC704573
:101750001FDCB0F1804F41D040F20042C4F20002E1
:1017600090423BD040F6000221E043F6FF72C4F203
:101770000102904220DC42F20002C4F200029042D8
:101780002CD00022C4F20102904227D0604525D01F
:1017900028E040F60042C4F2000290421ED041F61A
:1017A0000002C4F20002904218D041F60042C4F296
:1017B0000002904212D015E044F20002C4F201028D
:1017C00090420BD044F60002C4F20102904205D0D0
:1017D00044F20042C4F20102904203D1CA6823F4E9
:1017E0004073134323F080024B69D1F800E08C680A
:1017F0001A430260C46240F48062C0F828E0624587
:1018000004BF096901630121416110BD80B5806B8E
:101810000021C185C184FFF7F1FC80BD0168CA6861
:1018200022F49072CA604A6922F001024A61026B96
:10183000012A03D1CA6822F01002CA60202180F870
:101840003E1000210163704780B50168CA6822F02C
:101850004002CA60202180F83D10FFF7DFFE80BD06
:1018600080B582B090F83E1022291ED18268B2F570
:10187000805F02D10169002940D0816AB2F5805FA2
:1018800007D00AB9026922B10268526802F07F02E9
:1018900001E0026852680A700121826A1144816283
:1018A000C18D01390A04C18501D002B080BD016833
:1018B000CA6822F02002CA60CA6822F48072CA6034
:1018C0004A6922F001024A61202280F83E20026B20
:1018D000012A1BD100220263CB6823F01003CB60E6
:1018E0000B68DB0605D501920A68019249680191EF
:1018F0000199818DFFF780FC02B080BD0168826A8A
:1019000049686FF35F2111800221C6E7FFF706FEE9
:1019100002B080BD10B504460068D4E902C2236954
:10192000016921F4405111430161626943EA0C01EC
:10193000E3691143C268194349F20C639A431143A6
:10194000C1604169A26921F4407141F20043114331
:1019500040F48062C4F201039A42416102D1FFF770
:10196000D7F801E0FFF7C2F8E16963681922B1F521
:10197000004FA0FB02011CD15A00DB0FFEF781FCD7
:1019800048F21F51C5F2EB11A0FB01235A096FF079
:10199000630302FB0300322303EBC000A0FB010141
:1019A0004FF4F87000EA111000EB0210C1F342117D
:1019B0001AE09A009B0FFEF764FC48F21F51C5F233
:1019C000EB11A0FB01235A096FF0630302FB030034
:1019D000322303EB0010A0FB0101F02000EA5110BC
:1019E00000EB0210C1F3431122680843906010BD60
:1019F00081628285C28500212222016480F83E2016
:101A0000026980F83C1022B10168CA6842F4807211
:101A1000CA600168486940F001004861C86840F048
:101A200020020020CA60704790F83D10212923D180
:101A30008168B1F5805F01D1016931B1016A026845
:101A40004B1C03620978516007E0016A036831F8B2
:101A5000022B6FF35F225A600162C18C01390A04C4
:101A6000C18418BF70470068C16821F08001C1605F
:101A7000C16841F04001C160704700002DE9F041AC
:101A80000446006800680840884202D10020BDE892
:101A9000F0811D460E4690465F1C04E020680068F9
:101AA0003040B042F2D0002FF8D02DB1FEF7FAFE50
:101AB000A0EB0800A842F1D92068C16821F4D071D8
:101AC000C160416921F001014161202084F83D009D
:101AD00084F83E00002084F83C000320BDE8F0813B
:101AE000F0B581B040F21814C2F200044FF6FE7651
:101AF0002046C0F20106FFF78BFB00252046FFF7CA
:101B00007FFB202803D0B54205F10105F6D940F24C
:101B1000181440F214150027C2F20004C2F20005A6
:101B2000204629460122FFF7DDFC18B1B74207F134
:101B30000107F5D901B0F0BDFEE70000002848BF5D
:101B4000704700F01F01012202FA01F14EF200126B
:101B50004009CEF2000242F8201070474EF60C50B9
:101B6000CEF200000068C0F3022070474EF6145316
:101B700000F00F02CEF2000309011A4400F16043A5
:101B8000B0F1FF3FC8BF03F5644211707047000019
:101B90004EF60C51CEF200010A684FF6FF031A40D0
:101BA00060F30A2242F0806040F0FD7008607047E8
:101BB0007047000010B504460420FFF795F940F285
:101BC0001010C2F20000046010BD000070B54DF2AC
:101BD0004961CFF2B921A0FB0112560A4FF40771F7
:101BE00006FB1105B0F5077F09D343F66054C0F238
:101BF000080400BF204600F00BF8013EFAD1002D8A
:101C000008BF70BD4FF47A70684300F001F870BDF2
:101C100080B54EF2180140F21012CEF20001C2F26D
:101C2000000251F804CC1268002302FB00FE086891
:101C30000A689042FCD003449B1A904298BF6344C8
:101C40007345104628BF80BDF2E7000041F2000155
:101C5000C4F201010A685206FCD5C2B24A6070475C
:101C60002DE9F04186B0002643F630000196C4F21B
:101C70000200016841F2000541F0100101600168B5
:101C8000C4F2020501F01001019101990196016869
:101C90000DF1040841F0100101600168012401F018
:101CA00010010191019901960168022741F010018C
:101CB0000160016801F0100101910199019601682C
:101CC00041F0010101600068414600F0010001900F
:101CD00001981020CDE90106284603940497FEF7E9
:101CE000FFFC0820CDE9010628464146CDE903471F
:101CF000FEF7F6FC0420CDE9010628464146CDE971
:101D00000347FEF7EDFC01A8D0C0A5F58050414681
:101D10000497FEF7E5FC06B0BDE8F081B0B540F2EF
:101D200090150028C2F200051CBF002028702878FA
:101D300041F20004C4F20204E0B120461021FEF793
:101D40009DFD012814D120460821FEF797FD0128AA
:101D50000ED120460421FEF791FD012808D1A4F5FB
:101D600080500121FEF78AFD002804BF0020287062
:101D70000020B0BD20461021FEF780FD80B1204636
:101D80000821FEF77BFD58B120460421FEF776FDC1
:101D900030B1A4F580500121FEF770FD0128CCD1AF
:101DA0000A20FFF713FF0120287020461021FEF7BC
:101DB00065FDB0FA80F0450920460821FEF75EFD7A
:101DC000002820464FF0040108BF0225FEF756FD0B
:101DD0000028A4F580504FF0010108BF0325FEF74D
:101DE0004DFD012808BF04252846B0BDB0B586B01A
:101DF000002043F630010190C4F202010A6841F26A
:101E0000004442F020020A600A68C4F2020402F0B0
:101E100020020192019A0190086801AD40F0200073
:101E200008600868294600F02000019001984FF4EE
:101E3000007001900120CDE90200022004902046AC
:101E4000FEF74EFC4FF48060019020462946FEF7D5
:101E500047FC20464FF400710122FEF715FD204695
:101E60004FF480610122FEF70FFD06B0B0BD000007
:101E7000FEF72CFD4FF4A87008210222072300F082
:101E80009FF8A820FFF796FE4FF4E13000F0FEF82F
:101E9000FFF7ACFFFFF7E4FE41F287305321FFF775
:101EA0000DFC01E000F044F80020FFF737FF0228A6
:101EB000F8D00128F8D100F023F8F5E74FF0005CE6
:101EC000022B08BF4FF0805C002A08BF7047013822
:101ED000614400BF11F8013B013A00F8013FF9D11C
:101EE0007047000080B5034640F218108AB2C2F273
:101EF000000019464FF6FF73FFF72AFB80BD000074
:101F000070B582B06FF007046D464FF6F87600BFEB
:101F100008342846214608220223FFF7CFFF28462F
:101F20000821FFF7DFFFB442F2D302B070BD00001A
:101F30002DE9F04F83B040F2B80940F2700642F24A
:101F4000FA084FF0000B6FF00704C2F20009C2F26A
:101F5000000601ADC0F600084FF6F8774FF0000A12
:101F600013E000BF08342846214608220223FFF769
:101F7000A5FF28460821FFF7B5FF0AF1010A5FFA1D
:101F80008AF00A280AD0BC4217D25FEA0A60E9D177
:101F90003068C9F800B0C0F824B0E3E7306841F217
:101FA0008832406AD9F8001001FB02014046FEF772
:101FB000E1F94FF0000ABC42E7D303B0BDE8F08F6F
:101FC0002DE9F04F93B00E46074643F6400807A8A8
:101FD000302199469346C4F20208FEF747FA0025DD
:101FE0000695CDE90455CDE902550195D8F80000D4
:101FF000012440F08050C8F80000D8F800004FF0ED
:10200000020A00F080500190019847F2000001950B
:10201000C4F20000016841F48041016000680EA92B
:1020200000F48040019001984FF4803008904FF404
:10203000800081E8C10807A80794CDF834A0CDF846
:102040004890FEF7ADFDE8B90F20CDE9020A4FF444
:10205000A05005904FF48050069002A805210495E9
:10206000FEF78EFC08B101240CE0FEF713FC41F2F0
:102070000101884202BFD8F8C00340F48070C8F85C
:10208000C0030024204613B0BDE8F08F10B540F225
:10209000181441F20001C2F20004C4F2010100224E
:1020A0000C23C4E900102046C4E90222C4E9042339
:1020B000A261FFF797F940F21411C2F20001204625
:1020C0000122FFF70FFA10BDF1EE100A4FF6FF7173
:1020D000C0F2C03120EA010040F04070E1EE100A89
:1020E0007047000000000000000001020304060722
:1020F000080900000000010203040D0A54696D651F
:102100003A256420757320202A2A2A2A2A2A2A2A74
:102110002A2A2A2A2A2A2A2A2A2A2A2A2A2A2A0D3C
:102120000A00000044210008000000201000000008
:10213000C401000854210008100000208835000068
:10214000E0010008010000000024F400010000008C
:04215000100000007B
:0400000508000231BC
:00000001FF
